{
  "_format": "hh-sol-artifact-1",
  "contractName": "GNRToken",
  "sourceName": "contracts/Granola.sol",
  "abi": [
    {
      "inputs": [],
      "stateMutability": "nonpayable",
      "type": "constructor"
    },
    {
      "anonymous": false,
      "inputs": [
        {
          "indexed": true,
          "internalType": "address",
          "name": "_owner",
          "type": "address"
        },
        {
          "indexed": true,
          "internalType": "address",
          "name": "_spender",
          "type": "address"
        },
        {
          "indexed": false,
          "internalType": "uint256",
          "name": "_value",
          "type": "uint256"
        }
      ],
      "name": "Approval",
      "type": "event"
    },
    {
      "anonymous": false,
      "inputs": [
        {
          "indexed": true,
          "internalType": "address",
          "name": "_from",
          "type": "address"
        },
        {
          "indexed": true,
          "internalType": "address",
          "name": "_to",
          "type": "address"
        },
        {
          "indexed": false,
          "internalType": "uint256",
          "name": "_value",
          "type": "uint256"
        }
      ],
      "name": "Transfer",
      "type": "event"
    },
    {
      "inputs": [],
      "name": "_totalSupply",
      "outputs": [
        {
          "internalType": "uint256",
          "name": "",
          "type": "uint256"
        }
      ],
      "stateMutability": "view",
      "type": "function"
    },
    {
      "inputs": [
        {
          "internalType": "address",
          "name": "",
          "type": "address"
        },
        {
          "internalType": "address",
          "name": "",
          "type": "address"
        }
      ],
      "name": "allowance",
      "outputs": [
        {
          "internalType": "uint256",
          "name": "",
          "type": "uint256"
        }
      ],
      "stateMutability": "view",
      "type": "function"
    },
    {
      "inputs": [
        {
          "internalType": "address",
          "name": "_spender",
          "type": "address"
        },
        {
          "internalType": "uint256",
          "name": "_value",
          "type": "uint256"
        }
      ],
      "name": "approve",
      "outputs": [
        {
          "internalType": "bool",
          "name": "success",
          "type": "bool"
        }
      ],
      "stateMutability": "nonpayable",
      "type": "function"
    },
    {
      "inputs": [
        {
          "internalType": "address",
          "name": "",
          "type": "address"
        }
      ],
      "name": "balanceOf",
      "outputs": [
        {
          "internalType": "uint256",
          "name": "",
          "type": "uint256"
        }
      ],
      "stateMutability": "view",
      "type": "function"
    },
    {
      "inputs": [],
      "name": "decimals",
      "outputs": [
        {
          "internalType": "uint8",
          "name": "",
          "type": "uint8"
        }
      ],
      "stateMutability": "view",
      "type": "function"
    },
    {
      "inputs": [],
      "name": "name",
      "outputs": [
        {
          "internalType": "string",
          "name": "",
          "type": "string"
        }
      ],
      "stateMutability": "view",
      "type": "function"
    },
    {
      "inputs": [
        {
          "internalType": "uint256",
          "name": "a",
          "type": "uint256"
        },
        {
          "internalType": "uint256",
          "name": "b",
          "type": "uint256"
        }
      ],
      "name": "safeAdd",
      "outputs": [
        {
          "internalType": "uint256",
          "name": "c",
          "type": "uint256"
        }
      ],
      "stateMutability": "pure",
      "type": "function"
    },
    {
      "inputs": [
        {
          "internalType": "uint256",
          "name": "a",
          "type": "uint256"
        },
        {
          "internalType": "uint256",
          "name": "b",
          "type": "uint256"
        }
      ],
      "name": "safeDiv",
      "outputs": [
        {
          "internalType": "uint256",
          "name": "c",
          "type": "uint256"
        }
      ],
      "stateMutability": "pure",
      "type": "function"
    },
    {
      "inputs": [
        {
          "internalType": "uint256",
          "name": "a",
          "type": "uint256"
        },
        {
          "internalType": "uint256",
          "name": "b",
          "type": "uint256"
        }
      ],
      "name": "safeMul",
      "outputs": [
        {
          "internalType": "uint256",
          "name": "c",
          "type": "uint256"
        }
      ],
      "stateMutability": "pure",
      "type": "function"
    },
    {
      "inputs": [
        {
          "internalType": "uint256",
          "name": "a",
          "type": "uint256"
        },
        {
          "internalType": "uint256",
          "name": "b",
          "type": "uint256"
        }
      ],
      "name": "safeSub",
      "outputs": [
        {
          "internalType": "uint256",
          "name": "c",
          "type": "uint256"
        }
      ],
      "stateMutability": "pure",
      "type": "function"
    },
    {
      "inputs": [],
      "name": "symbol",
      "outputs": [
        {
          "internalType": "string",
          "name": "",
          "type": "string"
        }
      ],
      "stateMutability": "view",
      "type": "function"
    },
    {
      "inputs": [
        {
          "internalType": "address",
          "name": "_to",
          "type": "address"
        },
        {
          "internalType": "uint256",
          "name": "_value",
          "type": "uint256"
        }
      ],
      "name": "transfer",
      "outputs": [
        {
          "internalType": "bool",
          "name": "success",
          "type": "bool"
        }
      ],
      "stateMutability": "nonpayable",
      "type": "function"
    },
    {
      "inputs": [
        {
          "internalType": "address",
          "name": "_from",
          "type": "address"
        },
        {
          "internalType": "address",
          "name": "_to",
          "type": "address"
        },
        {
          "internalType": "uint256",
          "name": "_value",
          "type": "uint256"
        }
      ],
      "name": "transferFrom",
      "outputs": [
        {
          "internalType": "bool",
          "name": "success",
          "type": "bool"
        }
      ],
      "stateMutability": "nonpayable",
      "type": "function"
    }
  ],
  "bytecode": "0x608060405234801561001057600080fd5b506040518060400160405280600381526020017f474e5200000000000000000000000000000000000000000000000000000000008152506000908051906020019061005c929190610119565b506040518060400160405280600781526020017f4772616e6f6c6100000000000000000000000000000000000000000000000000815250600190805190602001906100a8929190610119565b5060028060006101000a81548160ff021916908360ff160217905550620186a0600381905550600354600460003373ffffffffffffffffffffffffffffffffffffffff1673ffffffffffffffffffffffffffffffffffffffff168152602001908152602001600020819055506101b6565b828054600181600116156101000203166002900490600052602060002090601f016020900481019282601f1061015a57805160ff1916838001178555610188565b82800160010185558215610188579182015b8281111561018757825182559160200191906001019061016c565b5b5090506101959190610199565b5090565b5b808211156101b257600081600090555060010161019a565b5090565b610ff180620001c66000396000f3fe608060405234801561001057600080fd5b50600436106100cf5760003560e01c806395d89b411161008c578063b5931f7c11610066578063b5931f7c14610409578063d05c78da14610455578063dd62ed3e146104a1578063e6cb901314610519576100cf565b806395d89b41146102d6578063a293d1e814610359578063a9059cbb146103a5576100cf565b806306fdde03146100d4578063095ea7b31461015757806323b872dd146101bb578063313ce5671461023f5780633eaaf86b1461026057806370a082311461027e575b600080fd5b6100dc610565565b6040518080602001828103825283818151815260200191508051906020019080838360005b8381101561011c578082015181840152602081019050610101565b50505050905090810190601f1680156101495780820380516001836020036101000a031916815260200191505b509250505060405180910390f35b6101a36004803603604081101561016d57600080fd5b81019080803573ffffffffffffffffffffffffffffffffffffffff16906020019092919080359060200190929190505050610603565b60405180821515815260200191505060405180910390f35b610227600480360360608110156101d157600080fd5b81019080803573ffffffffffffffffffffffffffffffffffffffff169060200190929190803573ffffffffffffffffffffffffffffffffffffffff169060200190929190803590602001909291905050506106f5565b60405180821515815260200191505060405180910390f35b610247610960565b604051808260ff16815260200191505060405180910390f35b610268610973565b6040518082815260200191505060405180910390f35b6102c06004803603602081101561029457600080fd5b81019080803573ffffffffffffffffffffffffffffffffffffffff169060200190929190505050610979565b6040518082815260200191505060405180910390f35b6102de610991565b6040518080602001828103825283818151815260200191508051906020019080838360005b8381101561031e578082015181840152602081019050610303565b50505050905090810190601f16801561034b5780820380516001836020036101000a031916815260200191505b509250505060405180910390f35b61038f6004803603604081101561036f57600080fd5b810190808035906020019092919080359060200190929190505050610a2f565b6040518082815260200191505060405180910390f35b6103f1600480360360408110156103bb57600080fd5b81019080803573ffffffffffffffffffffffffffffffffffffffff16906020019092919080359060200190929190505050610a49565b60405180821515815260200191505060405180910390f35b61043f6004803603604081101561041f57600080fd5b810190808035906020019092919080359060200190929190505050610caa565b6040518082815260200191505060405180910390f35b61048b6004803603604081101561046b57600080fd5b810190808035906020019092919080359060200190929190505050610cca565b6040518082815260200191505060405180910390f35b610503600480360360408110156104b757600080fd5b81019080803573ffffffffffffffffffffffffffffffffffffffff169060200190929190803573ffffffffffffffffffffffffffffffffffffffff169060200190929190505050610cf7565b6040518082815260200191505060405180910390f35b61054f6004803603604081101561052f57600080fd5b810190808035906020019092919080359060200190929190505050610d1c565b6040518082815260200191505060405180910390f35b60018054600181600116156101000203166002900480601f0160208091040260200160405190810160405280929190818152602001828054600181600116156101000203166002900480156105fb5780601f106105d0576101008083540402835291602001916105fb565b820191906000526020600020905b8154815290600101906020018083116105de57829003601f168201915b505050505081565b600081600560003373ffffffffffffffffffffffffffffffffffffffff1673ffffffffffffffffffffffffffffffffffffffff16815260200190815260200160002060008573ffffffffffffffffffffffffffffffffffffffff1673ffffffffffffffffffffffffffffffffffffffff168152602001908152602001600020819055508273ffffffffffffffffffffffffffffffffffffffff163373ffffffffffffffffffffffffffffffffffffffff167f8c5be1e5ebec7d5bd14f71427d1e84f3dd0314c0f7b2291e5b200ac8c7c3b925846040518082815260200191505060405180910390a36001905092915050565b6000600460008573ffffffffffffffffffffffffffffffffffffffff1673ffffffffffffffffffffffffffffffffffffffff1681526020019081526020016000205482111561074357600080fd5b600560008573ffffffffffffffffffffffffffffffffffffffff1673ffffffffffffffffffffffffffffffffffffffff16815260200190815260200160002060003373ffffffffffffffffffffffffffffffffffffffff1673ffffffffffffffffffffffffffffffffffffffff168152602001908152602001600020548211156107cc57600080fd5b81600460008673ffffffffffffffffffffffffffffffffffffffff1673ffffffffffffffffffffffffffffffffffffffff1681526020019081526020016000206000828254039250508190555081600460008573ffffffffffffffffffffffffffffffffffffffff1673ffffffffffffffffffffffffffffffffffffffff1681526020019081526020016000206000828254019250508190555081600560008673ffffffffffffffffffffffffffffffffffffffff1673ffffffffffffffffffffffffffffffffffffffff16815260200190815260200160002060003373ffffffffffffffffffffffffffffffffffffffff1673ffffffffffffffffffffffffffffffffffffffff168152602001908152602001600020600082825403925050819055508273ffffffffffffffffffffffffffffffffffffffff168473ffffffffffffffffffffffffffffffffffffffff167fddf252ad1be2c89b69c2b068fc378daa952ba7f163c4a11628f55a4df523b3ef846040518082815260200191505060405180910390a3600190509392505050565b600260009054906101000a900460ff1681565b60035481565b60046020528060005260406000206000915090505481565b60008054600181600116156101000203166002900480601f016020809104026020016040519081016040528092919081815260200182805460018160011615610100020316600290048015610a275780601f106109fc57610100808354040283529160200191610a27565b820191906000526020600020905b815481529060010190602001808311610a0a57829003601f168201915b505050505081565b600082821115610a3e57600080fd5b818303905092915050565b6000610ac96040518060400160405280601b81526020017f53656e6465722062616c616e636520697320257320746f6b656e730000000000815250600460003373ffffffffffffffffffffffffffffffffffffffff1673ffffffffffffffffffffffffffffffffffffffff16815260200190815260200160002054610d36565b610b096040518060400160405280601e81526020017f547279696e6720746f2073656e6420257320746f6b656e7320746f20257300008152508385610e3d565b81600460003373ffffffffffffffffffffffffffffffffffffffff1673ffffffffffffffffffffffffffffffffffffffff168152602001908152602001600020541015610ba1576040517f08c379a000000000000000000000000000000000000000000000000000000000815260040180806020018281038252602f815260200180610f8d602f913960400191505060405180910390fd5b81600460003373ffffffffffffffffffffffffffffffffffffffff1673ffffffffffffffffffffffffffffffffffffffff1681526020019081526020016000206000828254039250508190555081600460008573ffffffffffffffffffffffffffffffffffffffff1673ffffffffffffffffffffffffffffffffffffffff168152602001908152602001600020600082825401925050819055508273ffffffffffffffffffffffffffffffffffffffff163373ffffffffffffffffffffffffffffffffffffffff167fddf252ad1be2c89b69c2b068fc378daa952ba7f163c4a11628f55a4df523b3ef846040518082815260200191505060405180910390a36001905092915050565b6000808211610cb857600080fd5b818381610cc157fe5b04905092915050565b600081830290506000831480610ce8575081838281610ce557fe5b04145b610cf157600080fd5b92915050565b6005602052816000526040600020602052806000526040600020600091509150505481565b6000818301905082811015610d3057600080fd5b92915050565b610e3982826040516024018080602001838152602001828103825284818151815260200191508051906020019080838360005b83811015610d84578082015181840152602081019050610d69565b50505050905090810190601f168015610db15780820380516001836020036101000a031916815260200191505b5093505050506040516020818303038152906040527f9710a9d0000000000000000000000000000000000000000000000000000000007bffffffffffffffffffffffffffffffffffffffffffffffffffffffff19166020820180517bffffffffffffffffffffffffffffffffffffffffffffffffffffffff8381831617835250505050610f63565b5050565b610f5e83838360405160240180806020018481526020018373ffffffffffffffffffffffffffffffffffffffff168152602001828103825285818151815260200191508051906020019080838360005b83811015610ea8578082015181840152602081019050610e8d565b50505050905090810190601f168015610ed55780820380516001836020036101000a031916815260200191505b509450505050506040516020818303038152906040527fe3849f79000000000000000000000000000000000000000000000000000000007bffffffffffffffffffffffffffffffffffffffffffffffffffffffff19166020820180517bffffffffffffffffffffffffffffffffffffffffffffffffffffffff8381831617835250505050610f63565b505050565b60008151905060006a636f6e736f6c652e6c6f679050602083016000808483855afa505050505056fe596f7520646f206e6f74206861766520656e6f75676820746f6b656e7320666f722074686973207472616e73666572a26469706673582212200902806352ae4cc9aa14a0701dfdce2105288c3e66fb93968cf125d02798895d64736f6c63430007030033",
  "linkReferences": {},
  "deployedLinkReferences": {}
}